{
  "contractName": "Basic",
  "abi": [
    {
      "inputs": [
        {
          "internalType": "contract IGatewayRegistry",
          "name": "_registry",
          "type": "address"
        }
      ],
      "payable": false,
      "stateMutability": "nonpayable",
      "type": "constructor"
    },
    {
      "anonymous": false,
      "inputs": [
        {
          "indexed": false,
          "internalType": "uint256",
          "name": "_amount",
          "type": "uint256"
        },
        {
          "indexed": false,
          "internalType": "bytes",
          "name": "_msg",
          "type": "bytes"
        }
      ],
      "name": "Deposit",
      "type": "event"
    },
    {
      "anonymous": false,
      "inputs": [
        {
          "indexed": false,
          "internalType": "bytes",
          "name": "_to",
          "type": "bytes"
        },
        {
          "indexed": false,
          "internalType": "uint256",
          "name": "_amount",
          "type": "uint256"
        },
        {
          "indexed": false,
          "internalType": "bytes",
          "name": "_msg",
          "type": "bytes"
        }
      ],
      "name": "Withdrawal",
      "type": "event"
    },
    {
      "constant": true,
      "inputs": [],
      "name": "registry",
      "outputs": [
        {
          "internalType": "contract IGatewayRegistry",
          "name": "",
          "type": "address"
        }
      ],
      "payable": false,
      "stateMutability": "view",
      "type": "function"
    },
    {
      "constant": false,
      "inputs": [
        {
          "internalType": "bytes",
          "name": "_msg",
          "type": "bytes"
        },
        {
          "internalType": "uint256",
          "name": "_amount",
          "type": "uint256"
        },
        {
          "internalType": "bytes32",
          "name": "_nHash",
          "type": "bytes32"
        },
        {
          "internalType": "bytes",
          "name": "_sig",
          "type": "bytes"
        }
      ],
      "name": "deposit",
      "outputs": [],
      "payable": false,
      "stateMutability": "nonpayable",
      "type": "function"
    },
    {
      "constant": false,
      "inputs": [
        {
          "internalType": "bytes",
          "name": "_msg",
          "type": "bytes"
        },
        {
          "internalType": "bytes",
          "name": "_to",
          "type": "bytes"
        },
        {
          "internalType": "uint256",
          "name": "_amount",
          "type": "uint256"
        }
      ],
      "name": "withdraw",
      "outputs": [],
      "payable": false,
      "stateMutability": "nonpayable",
      "type": "function"
    },
    {
      "constant": true,
      "inputs": [],
      "name": "balance",
      "outputs": [
        {
          "internalType": "uint256",
          "name": "",
          "type": "uint256"
        }
      ],
      "payable": false,
      "stateMutability": "view",
      "type": "function"
    }
  ],
  "bytecode": "0x608060405234801561001057600080fd5b506040516109c63803806109c68339818101604052602081101561003357600080fd5b8101908080519060200190929190505050806000806101000a81548173ffffffffffffffffffffffffffffffffffffffff021916908373ffffffffffffffffffffffffffffffffffffffff16021790555050610932806100946000396000f3fe608060405234801561001057600080fd5b506004361061004c5760003560e01c80632012aca7146100515780632b3a8c8f146101335780637b1039991461020b578063b69ef8a814610255575b600080fd5b6101316004803603608081101561006757600080fd5b810190808035906020019064010000000081111561008457600080fd5b82018360208201111561009657600080fd5b803590602001918460018302840111640100000000831117156100b857600080fd5b90919293919293908035906020019092919080359060200190929190803590602001906401000000008111156100ed57600080fd5b8201836020820111156100ff57600080fd5b8035906020019184600183028401116401000000008311171561012157600080fd5b9091929391929390505050610273565b005b6102096004803603606081101561014957600080fd5b810190808035906020019064010000000081111561016657600080fd5b82018360208201111561017857600080fd5b8035906020019184600183028401116401000000008311171561019a57600080fd5b9091929391929390803590602001906401000000008111156101bb57600080fd5b8201836020820111156101cd57600080fd5b803590602001918460018302840111640100000000831117156101ef57600080fd5b9091929391929390803590602001909291905050506104f2565b005b61021361073c565b604051808273ffffffffffffffffffffffffffffffffffffffff1673ffffffffffffffffffffffffffffffffffffffff16815260200191505060405180910390f35b61025d610761565b6040518082815260200191505060405180910390f35b6000868660405160200180806020018281038252848482818152602001925080828437600081840152601f19601f820116905080830192505050935050505060405160208183030381529060405280519060200120905060008060009054906101000a900473ffffffffffffffffffffffffffffffffffffffff1673ffffffffffffffffffffffffffffffffffffffff166364936b1e6040518163ffffffff1660e01b81526004018080602001828103825260038152602001807f425443000000000000000000000000000000000000000000000000000000000081525060200191505060206040518083038186803b15801561036f57600080fd5b505afa158015610383573d6000803e3d6000fd5b505050506040513d602081101561039957600080fd5b810190808051906020019092919050505073ffffffffffffffffffffffffffffffffffffffff1663159ab14d83888888886040518663ffffffff1660e01b815260040180868152602001858152602001848152602001806020018281038252848482818152602001925080828437600081840152601f19601f8201169050808301925050509650505050505050602060405180830381600087803b15801561044057600080fd5b505af1158015610454573d6000803e3d6000fd5b505050506040513d602081101561046a57600080fd5b810190808051906020019092919050505090507f39ad770f9ce7344fadb857c83f6206aa00bf105d7ff26b65d54cdadad280be8e81898960405180848152602001806020018281038252848482818152602001925080828437600081840152601f19601f82011690508083019250505094505050505060405180910390a15050505050505050565b60008060009054906101000a900473ffffffffffffffffffffffffffffffffffffffff1673ffffffffffffffffffffffffffffffffffffffff166364936b1e6040518163ffffffff1660e01b81526004018080602001828103825260038152602001807f425443000000000000000000000000000000000000000000000000000000000081525060200191505060206040518083038186803b15801561059757600080fd5b505afa1580156105ab573d6000803e3d6000fd5b505050506040513d60208110156105c157600080fd5b810190808051906020019092919050505073ffffffffffffffffffffffffffffffffffffffff166338463cff8585856040518463ffffffff1660e01b815260040180806020018381526020018281038252858582818152602001925080828437600081840152601f19601f820116905080830192505050945050505050602060405180830381600087803b15801561065857600080fd5b505af115801561066c573d6000803e3d6000fd5b505050506040513d602081101561068257600080fd5b810190808051906020019092919050505090507f0cff308d027e58d13ec4aca9075216c4017a9927cce1b0283d1200622d7b7e1184848389896040518080602001858152602001806020018381038352888882818152602001925080828437600081840152601f19601f8201169050808301925050508381038252858582818152602001925080828437600081840152601f19601f82011690508083019250505097505050505050505060405180910390a1505050505050565b6000809054906101000a900473ffffffffffffffffffffffffffffffffffffffff1681565b60008060009054906101000a900473ffffffffffffffffffffffffffffffffffffffff1673ffffffffffffffffffffffffffffffffffffffff1663efa74f1f6040518163ffffffff1660e01b81526004018080602001828103825260038152602001807f425443000000000000000000000000000000000000000000000000000000000081525060200191505060206040518083038186803b15801561080657600080fd5b505afa15801561081a573d6000803e3d6000fd5b505050506040513d602081101561083057600080fd5b810190808051906020019092919050505073ffffffffffffffffffffffffffffffffffffffff166370a08231306040518263ffffffff1660e01b8152600401808273ffffffffffffffffffffffffffffffffffffffff1673ffffffffffffffffffffffffffffffffffffffff16815260200191505060206040518083038186803b1580156108bd57600080fd5b505afa1580156108d1573d6000803e3d6000fd5b505050506040513d60208110156108e757600080fd5b810190808051906020019092919050505090509056fea265627a7a72315820c3ec0d2ebb6ca150a81a0199c43c2eeb8f9ff916a3a1246a31c763a3d60aac7964736f6c63430005100032",
  "source": "//SPDX-License-Identifier: MIT\npragma solidity ^0.5.16;\n\nimport \"../interfaces/ren/Ren.sol\";\n\n// Deposit\n// 1. Handle BTC Deposit into renBTC\n// 2. Once we have renBTC, we deposit it into curve's sBTC pool and get a crvBTC\n// 3. Once we have the crvBTC token, we deposit it into yearn's crvBTC vault and get ycrvBTC\n\n// Withdrawals\n// 1. User chooses to withdraw his BTC\n// 2. He chooses either directly to BTC or to one of the curve's pool assets\n// 3. Contract sends his token\n\ncontract Basic {\n    IGatewayRegistry public registry;\n\n    event Deposit(uint256 _amount, bytes _msg);\n    event Withdrawal(bytes _to, uint256 _amount, bytes _msg);\n\n    constructor(IGatewayRegistry _registry) public {\n        registry = _registry;\n    }\n\n    function deposit(\n        // Parameters from users\n        bytes calldata _msg,\n        // Parameters from Darknodes\n        uint256 _amount,\n        bytes32 _nHash,\n        bytes calldata _sig\n    ) external {\n        bytes32 pHash = keccak256(abi.encode(_msg));\n        uint256 mintedAmount = registry.getGatewayBySymbol(\"BTC\").mint(\n            pHash,\n            _amount,\n            _nHash,\n            _sig\n        );\n        emit Deposit(mintedAmount, _msg);\n    }\n\n    function withdraw(\n        bytes calldata _msg,\n        bytes calldata _to,\n        uint256 _amount\n    ) external {\n        uint256 burnedAmount = registry.getGatewayBySymbol(\"BTC\").burn(\n            _to,\n            _amount\n        );\n        emit Withdrawal(_to, burnedAmount, _msg);\n    }\n\n    function balance() public view returns (uint256) {\n        return registry.getTokenBySymbol(\"BTC\").balanceOf(address(this));\n    }\n}\n",
  "sourcePath": "/Users/luizparreira/work/bipa-eng/bipa-yield/contracts/Basic.sol",
  "compiler": {
    "name": "solc",
    "version": "0.5.16+commit.9c3226ce.Emscripten.clang"
  },
  "schemaVersion": "3.2.5",
  "updatedAt": "2020-10-02T16:55:52.961Z",
  "networkType": "ethereum",
  "devdoc": {
    "methods": {}
  },
  "userdoc": {
    "methods": {}
  }
}